{
  "_format": "hh-sol-artifact-1",
  "contractName": "GooAgentRegistry",
  "sourceName": "goo-contracts/src/GooAgentRegistry.sol",
  "abi": [
    {
      "inputs": [],
      "stateMutability": "nonpayable",
      "type": "constructor"
    },
    {
      "inputs": [
        {
          "internalType": "address",
          "name": "sender",
          "type": "address"
        },
        {
          "internalType": "uint256",
          "name": "tokenId",
          "type": "uint256"
        },
        {
          "internalType": "address",
          "name": "owner",
          "type": "address"
        }
      ],
      "name": "ERC721IncorrectOwner",
      "type": "error"
    },
    {
      "inputs": [
        {
          "internalType": "address",
          "name": "operator",
          "type": "address"
        },
        {
          "internalType": "uint256",
          "name": "tokenId",
          "type": "uint256"
        }
      ],
      "name": "ERC721InsufficientApproval",
      "type": "error"
    },
    {
      "inputs": [
        {
          "internalType": "address",
          "name": "approver",
          "type": "address"
        }
      ],
      "name": "ERC721InvalidApprover",
      "type": "error"
    },
    {
      "inputs": [
        {
          "internalType": "address",
          "name": "operator",
          "type": "address"
        }
      ],
      "name": "ERC721InvalidOperator",
      "type": "error"
    },
    {
      "inputs": [
        {
          "internalType": "address",
          "name": "owner",
          "type": "address"
        }
      ],
      "name": "ERC721InvalidOwner",
      "type": "error"
    },
    {
      "inputs": [
        {
          "internalType": "address",
          "name": "receiver",
          "type": "address"
        }
      ],
      "name": "ERC721InvalidReceiver",
      "type": "error"
    },
    {
      "inputs": [
        {
          "internalType": "address",
          "name": "sender",
          "type": "address"
        }
      ],
      "name": "ERC721InvalidSender",
      "type": "error"
    },
    {
      "inputs": [
        {
          "internalType": "uint256",
          "name": "tokenId",
          "type": "uint256"
        }
      ],
      "name": "ERC721NonexistentToken",
      "type": "error"
    },
    {
      "anonymous": false,
      "inputs": [
        {
          "indexed": true,
          "internalType": "uint256",
          "name": "agentId",
          "type": "uint256"
        },
        {
          "indexed": true,
          "internalType": "address",
          "name": "oldOwner",
          "type": "address"
        },
        {
          "indexed": true,
          "internalType": "address",
          "name": "newOwner",
          "type": "address"
        }
      ],
      "name": "AgentOwnershipTransferred",
      "type": "event"
    },
    {
      "anonymous": false,
      "inputs": [
        {
          "indexed": true,
          "internalType": "uint256",
          "name": "agentId",
          "type": "uint256"
        },
        {
          "indexed": true,
          "internalType": "address",
          "name": "tokenContract",
          "type": "address"
        },
        {
          "indexed": true,
          "internalType": "address",
          "name": "owner",
          "type": "address"
        },
        {
          "indexed": false,
          "internalType": "address",
          "name": "agentWallet",
          "type": "address"
        },
        {
          "indexed": false,
          "internalType": "string",
          "name": "genomeURI",
          "type": "string"
        }
      ],
      "name": "AgentRegistered",
      "type": "event"
    },
    {
      "anonymous": false,
      "inputs": [
        {
          "indexed": true,
          "internalType": "uint256",
          "name": "agentId",
          "type": "uint256"
        },
        {
          "indexed": true,
          "internalType": "address",
          "name": "oldWallet",
          "type": "address"
        },
        {
          "indexed": true,
          "internalType": "address",
          "name": "newWallet",
          "type": "address"
        }
      ],
      "name": "AgentWalletUpdated",
      "type": "event"
    },
    {
      "anonymous": false,
      "inputs": [
        {
          "indexed": true,
          "internalType": "address",
          "name": "owner",
          "type": "address"
        },
        {
          "indexed": true,
          "internalType": "address",
          "name": "approved",
          "type": "address"
        },
        {
          "indexed": true,
          "internalType": "uint256",
          "name": "tokenId",
          "type": "uint256"
        }
      ],
      "name": "Approval",
      "type": "event"
    },
    {
      "anonymous": false,
      "inputs": [
        {
          "indexed": true,
          "internalType": "address",
          "name": "owner",
          "type": "address"
        },
        {
          "indexed": true,
          "internalType": "address",
          "name": "operator",
          "type": "address"
        },
        {
          "indexed": false,
          "internalType": "bool",
          "name": "approved",
          "type": "bool"
        }
      ],
      "name": "ApprovalForAll",
      "type": "event"
    },
    {
      "anonymous": false,
      "inputs": [
        {
          "indexed": true,
          "internalType": "uint256",
          "name": "agentId",
          "type": "uint256"
        },
        {
          "indexed": false,
          "internalType": "string",
          "name": "newURI",
          "type": "string"
        }
      ],
      "name": "GenomeURIUpdated",
      "type": "event"
    },
    {
      "anonymous": false,
      "inputs": [
        {
          "indexed": true,
          "internalType": "address",
          "name": "from",
          "type": "address"
        },
        {
          "indexed": true,
          "internalType": "address",
          "name": "to",
          "type": "address"
        },
        {
          "indexed": true,
          "internalType": "uint256",
          "name": "tokenId",
          "type": "uint256"
        }
      ],
      "name": "Transfer",
      "type": "event"
    },
    {
      "inputs": [
        {
          "internalType": "address",
          "name": "target",
          "type": "address"
        }
      ],
      "name": "_tryGetOwner",
      "outputs": [
        {
          "internalType": "address",
          "name": "",
          "type": "address"
        }
      ],
      "stateMutability": "view",
      "type": "function"
    },
    {
      "inputs": [
        {
          "internalType": "address",
          "name": "tokenContract",
          "type": "address"
        }
      ],
      "name": "agentIdByToken",
      "outputs": [
        {
          "internalType": "uint256",
          "name": "",
          "type": "uint256"
        }
      ],
      "stateMutability": "view",
      "type": "function"
    },
    {
      "inputs": [
        {
          "internalType": "uint256",
          "name": "agentId",
          "type": "uint256"
        }
      ],
      "name": "agentOwnerOf",
      "outputs": [
        {
          "internalType": "address",
          "name": "",
          "type": "address"
        }
      ],
      "stateMutability": "view",
      "type": "function"
    },
    {
      "inputs": [
        {
          "internalType": "uint256",
          "name": "agentId",
          "type": "uint256"
        }
      ],
      "name": "agentWalletOf",
      "outputs": [
        {
          "internalType": "address",
          "name": "",
          "type": "address"
        }
      ],
      "stateMutability": "view",
      "type": "function"
    },
    {
      "inputs": [
        {
          "internalType": "address",
          "name": "to",
          "type": "address"
        },
        {
          "internalType": "uint256",
          "name": "tokenId",
          "type": "uint256"
        }
      ],
      "name": "approve",
      "outputs": [],
      "stateMutability": "nonpayable",
      "type": "function"
    },
    {
      "inputs": [
        {
          "internalType": "address",
          "name": "owner",
          "type": "address"
        }
      ],
      "name": "balanceOf",
      "outputs": [
        {
          "internalType": "uint256",
          "name": "",
          "type": "uint256"
        }
      ],
      "stateMutability": "view",
      "type": "function"
    },
    {
      "inputs": [
        {
          "internalType": "uint256",
          "name": "agentId",
          "type": "uint256"
        }
      ],
      "name": "genomeURIOf",
      "outputs": [
        {
          "internalType": "string",
          "name": "",
          "type": "string"
        }
      ],
      "stateMutability": "view",
      "type": "function"
    },
    {
      "inputs": [
        {
          "internalType": "uint256",
          "name": "agentId",
          "type": "uint256"
        }
      ],
      "name": "getAgent",
      "outputs": [
        {
          "components": [
            {
              "internalType": "address",
              "name": "tokenContract",
              "type": "address"
            },
            {
              "internalType": "address",
              "name": "agentWallet",
              "type": "address"
            },
            {
              "internalType": "address",
              "name": "owner",
              "type": "address"
            },
            {
              "internalType": "string",
              "name": "genomeURI",
              "type": "string"
            },
            {
              "internalType": "uint256",
              "name": "registeredAt",
              "type": "uint256"
            }
          ],
          "internalType": "struct IGooAgentRegistry.AgentRecord",
          "name": "",
          "type": "tuple"
        }
      ],
      "stateMutability": "view",
      "type": "function"
    },
    {
      "inputs": [
        {
          "internalType": "uint256",
          "name": "tokenId",
          "type": "uint256"
        }
      ],
      "name": "getApproved",
      "outputs": [
        {
          "internalType": "address",
          "name": "",
          "type": "address"
        }
      ],
      "stateMutability": "view",
      "type": "function"
    },
    {
      "inputs": [
        {
          "internalType": "address",
          "name": "owner",
          "type": "address"
        },
        {
          "internalType": "address",
          "name": "operator",
          "type": "address"
        }
      ],
      "name": "isApprovedForAll",
      "outputs": [
        {
          "internalType": "bool",
          "name": "",
          "type": "bool"
        }
      ],
      "stateMutability": "view",
      "type": "function"
    },
    {
      "inputs": [],
      "name": "name",
      "outputs": [
        {
          "internalType": "string",
          "name": "",
          "type": "string"
        }
      ],
      "stateMutability": "view",
      "type": "function"
    },
    {
      "inputs": [
        {
          "internalType": "uint256",
          "name": "tokenId",
          "type": "uint256"
        }
      ],
      "name": "ownerOf",
      "outputs": [
        {
          "internalType": "address",
          "name": "",
          "type": "address"
        }
      ],
      "stateMutability": "view",
      "type": "function"
    },
    {
      "inputs": [
        {
          "internalType": "address",
          "name": "tokenContract",
          "type": "address"
        },
        {
          "internalType": "address",
          "name": "agentWallet_",
          "type": "address"
        },
        {
          "internalType": "string",
          "name": "genomeURI",
          "type": "string"
        }
      ],
      "name": "registerAgent",
      "outputs": [
        {
          "internalType": "uint256",
          "name": "agentId",
          "type": "uint256"
        }
      ],
      "stateMutability": "nonpayable",
      "type": "function"
    },
    {
      "inputs": [
        {
          "internalType": "address",
          "name": "from",
          "type": "address"
        },
        {
          "internalType": "address",
          "name": "to",
          "type": "address"
        },
        {
          "internalType": "uint256",
          "name": "tokenId",
          "type": "uint256"
        }
      ],
      "name": "safeTransferFrom",
      "outputs": [],
      "stateMutability": "nonpayable",
      "type": "function"
    },
    {
      "inputs": [
        {
          "internalType": "address",
          "name": "from",
          "type": "address"
        },
        {
          "internalType": "address",
          "name": "to",
          "type": "address"
        },
        {
          "internalType": "uint256",
          "name": "tokenId",
          "type": "uint256"
        },
        {
          "internalType": "bytes",
          "name": "data",
          "type": "bytes"
        }
      ],
      "name": "safeTransferFrom",
      "outputs": [],
      "stateMutability": "nonpayable",
      "type": "function"
    },
    {
      "inputs": [
        {
          "internalType": "uint256",
          "name": "agentId",
          "type": "uint256"
        },
        {
          "internalType": "address",
          "name": "newWallet",
          "type": "address"
        }
      ],
      "name": "setAgentWallet",
      "outputs": [],
      "stateMutability": "nonpayable",
      "type": "function"
    },
    {
      "inputs": [
        {
          "internalType": "address",
          "name": "operator",
          "type": "address"
        },
        {
          "internalType": "bool",
          "name": "approved",
          "type": "bool"
        }
      ],
      "name": "setApprovalForAll",
      "outputs": [],
      "stateMutability": "nonpayable",
      "type": "function"
    },
    {
      "inputs": [
        {
          "internalType": "bytes4",
          "name": "interfaceId",
          "type": "bytes4"
        }
      ],
      "name": "supportsInterface",
      "outputs": [
        {
          "internalType": "bool",
          "name": "",
          "type": "bool"
        }
      ],
      "stateMutability": "view",
      "type": "function"
    },
    {
      "inputs": [],
      "name": "symbol",
      "outputs": [
        {
          "internalType": "string",
          "name": "",
          "type": "string"
        }
      ],
      "stateMutability": "view",
      "type": "function"
    },
    {
      "inputs": [
        {
          "internalType": "uint256",
          "name": "agentId",
          "type": "uint256"
        }
      ],
      "name": "tokenOf",
      "outputs": [
        {
          "internalType": "address",
          "name": "",
          "type": "address"
        }
      ],
      "stateMutability": "view",
      "type": "function"
    },
    {
      "inputs": [
        {
          "internalType": "uint256",
          "name": "tokenId",
          "type": "uint256"
        }
      ],
      "name": "tokenURI",
      "outputs": [
        {
          "internalType": "string",
          "name": "",
          "type": "string"
        }
      ],
      "stateMutability": "view",
      "type": "function"
    },
    {
      "inputs": [],
      "name": "totalAgents",
      "outputs": [
        {
          "internalType": "uint256",
          "name": "",
          "type": "uint256"
        }
      ],
      "stateMutability": "view",
      "type": "function"
    },
    {
      "inputs": [
        {
          "internalType": "uint256",
          "name": "agentId",
          "type": "uint256"
        },
        {
          "internalType": "address",
          "name": "newOwner",
          "type": "address"
        }
      ],
      "name": "transferAgentOwnership",
      "outputs": [],
      "stateMutability": "nonpayable",
      "type": "function"
    },
    {
      "inputs": [
        {
          "internalType": "address",
          "name": "from",
          "type": "address"
        },
        {
          "internalType": "address",
          "name": "to",
          "type": "address"
        },
        {
          "internalType": "uint256",
          "name": "tokenId",
          "type": "uint256"
        }
      ],
      "name": "transferFrom",
      "outputs": [],
      "stateMutability": "nonpayable",
      "type": "function"
    },
    {
      "inputs": [
        {
          "internalType": "uint256",
          "name": "agentId",
          "type": "uint256"
        },
        {
          "internalType": "string",
          "name": "newURI",
          "type": "string"
        }
      ],
      "name": "updateGenomeURI",
      "outputs": [],
      "stateMutability": "nonpayable",
      "type": "function"
    }
  ],
  "bytecode": "0x60806040523461031357604080519081016001600160401b03811182821017610229576040908152600982526811dbdbc81059d95b9d60ba1b602083015280519081016001600160401b03811182821017610229576040526004815263476f6f4160e01b602082015281516001600160401b038111610229575f54600181811c91168015610309575b602082101461020b57601f81116102a7575b50602092601f821160011461024857928192935f9261023d575b50508160011b915f199060031b1c1916175f555b80516001600160401b03811161022957600154600181811c9116801561021f575b602082101461020b57601f81116101a8575b50602091601f8211600114610148579181925f9261013d575b50508160011b915f199060031b1c1916176001555b6001600655604051611b4990816103188239f35b015190505f80610114565b601f1982169260015f52805f20915f5b85811061019057508360019510610178575b505050811b01600155610129565b01515f1960f88460031b161c191690555f808061016a565b91926020600181928685015181550194019201610158565b60015f527fb10e2d527612073b26eecdfd717e6a320cf44b4afac2b0732d9fcbe2b7fa0cf6601f830160051c81019160208410610201575b601f0160051c01905b8181106101f657506100fb565b5f81556001016101e9565b90915081906101e0565b634e487b7160e01b5f52602260045260245ffd5b90607f16906100e9565b634e487b7160e01b5f52604160045260245ffd5b015190505f806100b4565b601f198216935f8052805f20915f5b86811061028f5750836001959610610277575b505050811b015f556100c8565b01515f1960f88460031b161c191690555f808061026a565b91926020600181928685015181550194019201610257565b5f80527f290decd9548b62a8d60345a988386fc84ba6bc95484008f6362f93160ef3e563601f830160051c810191602084106102ff575b601f0160051c01905b8181106102f4575061009a565b5f81556001016102e7565b90915081906102de565b90607f1690610088565b5f80fdfe6080806040526004361015610012575f80fd5b5f905f3560e01c90816301ffc9a71461125c5750806306fdde03146111ba578063081812fc1461117e578063095ea7b31461109457806323b872dd1461107d5780632de5aaf714610f6757806337ef6e5514610f2f57806342842e0e14610f0657806343764dd814610cab578063445aea0e14610c5c5780636352211e14610c2c578063636d2f6414610b8157806370a0823114610b30578063851f5d6914610ad9578063862876b7146109d15780638e7615ef1461090c57806395d89b411461082e578063a22cb4651461077a578063aa7686fb14610723578063b88d4fde146106c1578063c505371214610684578063c87b56dd14610627578063dbb56318146101dc578063e985e9c5146101845763ea78803f14610131575f80fd5b34610181576020366003190112610181576020906004358082526007835261016660018060a01b0360408420541615156116e3565b815260078252604060018060a01b0391205416604051908152f35b80fd5b50346101815760403660031901126101815760406101a0611305565b916101a961131b565b9260018060a01b031681526005602052209060018060a01b03165f52602052602060ff60405f2054166040519015158152f35b5034610181576060366003190112610181576101f6611305565b906101ff61131b565b9160443567ffffffffffffffff81116106235761022090369060040161136b565b909390916001600160a01b038116919082156105e7573b156105a2576001600160a01b03166102508115156117e0565b8184526008602052604084205461055d57338214801585816104c2575b61027d92916104ba575b50611824565b600654935f1985146104a6576001850160065560405161029c81611399565b83815260208101838152604082013381526102b836888b6113f3565b606084019081524260808501908152898652600760205260408620945185546001600160a01b03199081166001600160a01b0392831617875594516001870180548716918316919091179055925160028601805490951693169290921790925590518051600384019167ffffffffffffffff8211610492576103448261033e8554611429565b85611771565b602090601f831160011461042c5791806103789260049695948992610421575b50508160011b915f199060031b1c19161790565b90555b519101558281526008602052846040822055331561040d576001600160a01b036103a586336119e5565b166103f957507fcd117928f51323dc241380cfc2e4dff28cc597af1872c765d3522d92bb4ee6a960209585926103ee604051928392835260408a840152339760408401916117c0565b0390a4604051908152f35b6339e3563760e11b81526004819052602490fd5b633250574960e11b81526004819052602490fd5b015190505f80610364565b8387528187209190601f198416885b81811061047a575091600193918560049897969410610462575b505050811b01905561037b565b01515f1960f88460031b161c191690555f8080610455565b9293602060018192878601518155019501930161043b565b634e487b7160e01b86526041600452602486fd5b634e487b7160e01b81526011600452602490fd5b90505f610277565b604051638e7615ef60e01b81526004810186905292602084602481305afa80899161050d575b61027d95506104fa575b50925061026d565b6001600160a01b0316331491505f6104f2565b9192939490506020813d602011610555575b8161052c602093836113b5565b8101031261055157516001600160a01b03811681036105515761027d949392916104e8565b8880fd5b3d915061051f565b60405162461bcd60e51b815260206004820152601c60248201527f52656769737472793a20616c72656164792072656769737465726564000000006044820152606490fd5b60405162461bcd60e51b815260206004820152601860248201527f52656769737472793a206e6f74206120636f6e747261637400000000000000006044820152606490fd5b60405162461bcd60e51b81526020600482015260146024820152732932b3b4b9ba393c9d103d32b937903a37b5b2b760611b6044820152606490fd5b8280fd5b34610680576020366003190112610680576106436004356119b1565b505f6040516106536020826113b5565b5261067c6040516106656020826113b5565b5f81526040519182916020835260208301906112e1565b0390f35b5f80fd5b34610680575f366003190112610680576006545f1981019081116106ad57602090604051908152f35b634e487b7160e01b5f52601160045260245ffd5b34610680576080366003190112610680576106da611305565b6106e261131b565b6064359167ffffffffffffffff83116106805736602384011215610680576107176107219336906024816004013591016113f3565b9160443591611898565b005b34610680576020366003190112610680576004355f81815260076020526040902054610759906001600160a01b031615156116e3565b5f526007602052602060018060a01b03600260405f20015416604051908152f35b3461068057604036600319011261068057610793611305565b6024359081151580920361068057331561081b576001600160a01b031690811561080857335f52600560205260405f20825f5260205260405f2060ff1981541660ff83161790556040519081527f17307eab39ab6107e8899845ad3d59bd9653f200f220920489ca2b5937696c3160203392a3005b50630b61174360e31b5f5260045260245ffd5b63a9fbf51f60e01b5f525f60045260245ffd5b34610680575f366003190112610680576040515f60015461084e81611429565b80845290600181169081156108e8575060011461088a575b61067c83610876818503826113b5565b6040519182916020835260208301906112e1565b60015f9081527fb10e2d527612073b26eecdfd717e6a320cf44b4afac2b0732d9fcbe2b7fa0cf6939250905b8082106108ce57509091508101602001610876610866565b9192600181602092548385880101520191019092916108b6565b60ff191660208086019190915291151560051b840190910191506108769050610866565b34610680576020366003190112610680575f80610927611305565b604051638da5cb5b60e01b6020820190815260048252906109496024826113b5565b51915afa610955611869565b90806109c5575b1561098f5760208180518101031261068057602001516001600160a01b0381169081900361068057602090604051908152f35b60405162461bcd60e51b815260206004820152600e60248201526d1bdddb995c8a0a4819985a5b195960921b6044820152606490fd5b5060208151101561095c565b34610680576040366003190112610680576004356109ed61131b565b5f82815260076020526040902080546001600160a01b0316929190610a138415156116e3565b6001600160a01b03821615610a9d57600201546001600160a01b031692610a4490338514908115610a935750611824565b6001600160a01b0390610a589083906119e5565b169182610a725750637e27328960e01b5f5260045260245ffd5b808303610a7b57005b6364283d7b60e01b5f5260045260245260445260645ffd5b9050331485610277565b60405162461bcd60e51b81526020600482015260146024820152732932b3b4b9ba393c9d103d32b9379037bbb732b960611b6044820152606490fd5b34610680576020366003190112610680576004355f81815260076020526040902054610b0f906001600160a01b031615156116e3565b5f526007602052602060018060a01b03600160405f20015416604051908152f35b34610680576020366003190112610680576001600160a01b03610b51611305565b168015610b6e575f526003602052602060405f2054604051908152f35b6322718ad960e21b5f525f60045260245ffd5b3461068057604036600319011261068057600435610b9d61131b565b90805f526007602052600160405f2092610bc0828060a01b0385541615156116e3565b610bd6828060a01b03600286015416331461172f565b818060a01b031692610be98415156117e0565b0180546001600160a01b0319811684179091556001600160a01b0316907f74805688ff1e321e8ba9a2575ea8316cc3cff615cc85248b44db8b492e98945f5f80a4005b34610680576020366003190112610680576020610c4a6004356119b1565b6040516001600160a01b039091168152f35b34610680576020366003190112610680576004355f81815260076020526040902054610c92906001600160a01b031615156116e3565b5f52600760205261067c610876600360405f2001611461565b346106805760403660031901126106805760043560243567ffffffffffffffff811161068057610cdf90369060040161136b565b9190815f52600760205260405f205f8060018060a01b03835416610d048115156116e3565b610d1b60018060a01b03600286015416331461172f565b60405163ab94829560e01b602082019081526004825290610d3d6024826113b5565b51915afa610d49611869565b9080610efa575b610e8c575b506003019267ffffffffffffffff8111610e7857610d7d81610d778654611429565b86611771565b5f93601f8211600114610df657610dcc82807f37a8d4816b26fbbf22e4041a945523feab8df2b96b3f2e646f927028e135638e96975f91610deb575b508160011b915f199060031b1c19161790565b90555b610de66040519283926020845260208401916117c0565b0390a2005b905085013588610db9565b601f19821694815f5260205f20905f5b878110610e605750837f37a8d4816b26fbbf22e4041a945523feab8df2b96b3f2e646f927028e135638e969710610e47575b5050600182811b019055610dcf565b8401355f19600385901b60f8161c191690558580610e38565b90916020600181928589013581550193019101610e06565b634e487b7160e01b5f52604160045260245ffd5b602081805181010312610680576020015160ff811680910361068057600314610eb55784610d55565b60405162461bcd60e51b815260206004820152601760248201527f52656769737472793a206167656e7420697320444541440000000000000000006044820152606490fd5b50602081511015610d50565b3461068057610721610f1736611331565b9060405192610f276020856113b5565b5f8452611898565b34610680576020366003190112610680576001600160a01b03610f50611305565b165f526008602052602060405f2054604051908152f35b34610680576020366003190112610680576004355f6080604051610f8a81611399565b8281528260208201528260408201526060808201520152805f526007602052610fc060018060a01b0360405f20541615156116e3565b5f52600760205260405f20604051610fd781611399565b81546001600160a01b0390811682526001830154811660208301908152600284015490911660408301908152909261107290600461101760038301611461565b9160608601928352015492608085019384526040519586956020875260018060a01b03905116602087015260018060a01b03905116604086015260018060a01b0390511660608501525160a0608085015260c08401906112e1565b905160a08301520390f35b346106805761072161108e36611331565b91611501565b34610680576040366003190112610680576110ad611305565b6024356110b9816119b1565b3315158061116b575b8061113e575b61112b5781906001600160a01b0384811691167f8c5be1e5ebec7d5bd14f71427d1e84f3dd0314c0f7b2291e5b200ac8c7c3b9255f80a45f90815260046020526040902080546001600160a01b0319166001600160a01b03909216919091179055005b63a9fbf51f60e01b5f523360045260245ffd5b506001600160a01b0381165f90815260056020908152604080832033845290915290205460ff16156110c8565b506001600160a01b0381163314156110c2565b346106805760203660031901126106805760043561119b816119b1565b505f526004602052602060018060a01b0360405f205416604051908152f35b34610680575f366003190112610680576040515f5f546111d981611429565b80845290600181169081156108e857506001146112005761067c83610876818503826113b5565b5f8080527f290decd9548b62a8d60345a988386fc84ba6bc95484008f6362f93160ef3e563939250905b80821061124257509091508101602001610876610866565b91926001816020925483858801015201910190929161122a565b34610680576020366003190112610680576004359063ffffffff60e01b821680920361068057602091631eda545960e11b811490811561129e575b5015158152f35b6380ac58cd60e01b8114915081156112d0575b81156112bf575b5083611297565b6301ffc9a760e01b149050836112b8565b635b5e139f60e01b811491506112b1565b805180835260209291819084018484015e5f828201840152601f01601f1916010190565b600435906001600160a01b038216820361068057565b602435906001600160a01b038216820361068057565b6060906003190112610680576004356001600160a01b038116810361068057906024356001600160a01b0381168103610680579060443590565b9181601f840112156106805782359167ffffffffffffffff8311610680576020838186019501011161068057565b60a0810190811067ffffffffffffffff821117610e7857604052565b90601f8019910116810190811067ffffffffffffffff821117610e7857604052565b67ffffffffffffffff8111610e7857601f01601f191660200190565b9291926113ff826113d7565b9161140d60405193846113b5565b829481845281830111610680578281602093845f960137010152565b90600182811c92168015611457575b602083101461144357565b634e487b7160e01b5f52602260045260245ffd5b91607f1691611438565b9060405191825f82549261147484611429565b80845293600181169081156114df575060011461149b575b50611499925003836113b5565b565b90505f9291925260205f20905f915b8183106114c3575050906020611499928201015f61148c565b60209193508060019154838589010152019101909184926114aa565b90506020925061149994915060ff191682840152151560051b8201015f61148c565b6001600160a01b03909116919082156116d0575f828152600260205260409020546001600160a01b03169233151580611640575b508315158061160d575b815f52600360205260405f2060018154019055835f52600260205260405f20826001600160601b0360a01b8254161790558382867fddf252ad1be2c89b69c2b068fc378daa952ba7f163c4a11628f55a4df523b3ef5f80a480611605575b6115b8575b506001600160a01b0316808303610a7b57505050565b825f526007602052600260405f2001816001600160601b0360a01b82541617905583837f09941fa60f9a5b342a2145682d94c50f074b5bafd959733dd46ed3c71b97bdac5f80a45f6115a2565b50600161159d565b5f84815260046020526040902080546001600160a01b0319169055845f52600360205260405f205f19815401905561153f565b8061167f575b15611651575f611535565b828461166957637e27328960e01b5f5260045260245ffd5b63177e802f60e01b5f523360045260245260445ffd5b5033841480156116ae575b8061164657505f838152600460205260409020546001600160a01b03163314611646565b505f84815260056020908152604080832033845290915290205460ff1661168a565b633250574960e11b5f525f60045260245ffd5b156116ea57565b60405162461bcd60e51b815260206004820152601960248201527f52656769737472793a206167656e74206e6f7420666f756e64000000000000006044820152606490fd5b1561173657565b60405162461bcd60e51b81526020600482015260136024820152722932b3b4b9ba393c9d103737ba1037bbb732b960691b6044820152606490fd5b601f821161177e57505050565b5f5260205f20906020601f840160051c830193106117b6575b601f0160051c01905b8181106117ab575050565b5f81556001016117a0565b9091508190611797565b908060209392818452848401375f828201840152601f01601f1916010190565b156117e757565b60405162461bcd60e51b8152602060048201526015602482015274149959da5cdd1c9e4e881e995c9bc81dd85b1b195d605a1b6044820152606490fd5b1561182b57565b60405162461bcd60e51b8152602060048201526016602482015275149959da5cdd1c9e4e881d5b985d5d1a1bdc9a5e995960521b6044820152606490fd5b3d15611893573d9061187a826113d7565b9161188860405193846113b5565b82523d5f602084013e565b606090565b92916118a5818386611501565b813b6118b2575b50505050565b604051630a85bd0160e11b81523360048201526001600160a01b03948516602482015260448101919091526080606482015292169190602090829081906118fd9060848301906112e1565b03815f865af15f918161196c575b506119395750611919611869565b805190816119345782633250574960e11b5f5260045260245ffd5b602001fd5b6001600160e01b03191663757a42ff60e11b0161195a57505f8080806118ac565b633250574960e11b5f5260045260245ffd5b9091506020813d6020116119a9575b81611988602093836113b5565b8101031261068057516001600160e01b03198116810361068057905f61190b565b3d915061197b565b5f818152600260205260409020546001600160a01b03169081156119d3575090565b637e27328960e01b5f5260045260245ffd5b5f828152600260205260409020546001600160a01b0316918215159183919083611ae0575b6001600160a01b03169283151580611ac8575b825f52600260205260405f20856001600160601b0360a01b8254161790558285857fddf252ad1be2c89b69c2b068fc378daa952ba7f163c4a11628f55a4df523b3ef5f80a481611ac0575b50611a74575b50505090565b5f81815260076020526040812060020180546001600160a01b031916851790557f09941fa60f9a5b342a2145682d94c50f074b5bafd959733dd46ed3c71b97bdac9080a45f8181611a6e565b90505f611a68565b845f52600360205260405f2060018154019055611a1d565b5f82815260046020526040902080546001600160a01b0319169055825f52600360205260405f205f198154019055611a0a56fea2646970667358221220ac31660e39f01ab1cd3fea322664b5b883abdb781c2ab7876ec5e4824ca3b85164736f6c634300081c0033",
  "linkReferences": {},
  "deployedLinkReferences": {}
}